:100000000C94E3000C940B010C940B010C940B0169
:100010000C940B010C940B010C940B010C940B0130
:100020000C940B010C940B010C948A090C94B904E8
:100030000C940B010C940B010C940B010C940B0110
:100040000C940B010C94BF070C940B010C940B0146
:100050000C940B010C940B010C940B010C94750780
:100060000C940B010C940B010C940B010C940B01E0
:100070000C940B010C940B010C940B010C940B01D0
:100080000C940B010C940B010C940B010C940B01C0
:100090000C940B010C940B010C940B010C940B01B0
:1000A0000C940B010C940B010C940B0125022802FB
:1000B00017021B0221024902490249022C023002A6
:1000C00034023A023E0249024402000000002400C9
:1000D00027002A002D003000000000002500280025
:1000E0002B002E0031000000000023002600290014
:1000F0002C002F000404040404030405020202027D
:1001000004030202020206060606060604040202B0
:100110000204040408020110408040102040804086
:10012000800802040180402010020110801020404D
:1001300040200000000200090F0000030401000C31
:1001400000000000000000000000000000000000AF
:10015000080B000202020100090400000102020073
:1001600000052400100105240101010424020605F4
:100170002406000107058103100040090401000264
:100180000A00000007050202400000070583024044
:1001900000000403090412010002EF0201404F1B9A
:1001A0000692000101020301537061726B46756E85
:1001B00000537061726B46756E2050726F204D69EE
:1001C00063726F009D0C11241FBECFEFDAE0DEBF1B
:1001D000CDBF11E0A0E0B1E0E2EEFAE102C005908F
:1001E0000D92AE36B107D9F722E0AEE6B1E001C01C
:1001F0001D92A435B207E1F710E0C3EED0E004C0D1
:100200002197FE010E94640DC23ED107C9F70E94EA
:10021000FC090C946F0D0C940000409180015091EA
:10022000810120917E0130917F0142175307B4F480
:100230009091E8009570E1F39091E80092FD19C06B
:100240008093F100809180019091810101968F73DC
:100250009927892B19F48EEF8093E8008091800113
:10026000909181010196909381018093800181E0BA
:10027000089580E00895DF92EF92FF920F931F930D
:10028000CF93DF93D82EF92EE42E062F10E0C8016D
:100290000196880F0E940D0183E00E940D01CD2D73
:1002A000DF2D0C0F1D1FC017D10789F0E7FE03C01B
:1002B000FE01849101C088810E940D01F82E80E02A
:1002C0000E940D018F2121968111EDCF01C081E0A7
:1002D000DF91CF911F910F91FF90EF90DF900895E4
:1002E000DF92EF92FF920F931F93CF93DF93D82E5D
:1002F0008A017B01E40EF51EEB01CE15DF0571F0DE
:10030000D7FE03C0FE01849101C088810E940D01C7
:1003100021968111F2CF8FEF9FEF01C0C801DF91CD
:10032000CF911F910F91FF90EF90DF900895615052
:1003300030F02091F100FC0120830196F8CF28983D
:1003400084E6809386010895CF92DF92EF92FF9228
:100350000F931F93CF93DF936C017A018B01C0E061
:10036000D0E0CE15DF0581F0D8016D918D01D60169
:10037000ED91FC910190F081E02DC6010995892B4A
:1003800011F02196EECF7E01C701DF91CF911F9131
:100390000F91FF90EF90DF90CF900895CF93DF9370
:1003A0001F92CDB7DEB76983DC01ED91FC9102802D
:1003B000F381E02D41E050E0BE016F5F7F4F099572
:1003C0000F90DF91CF91089583E08093E9008091B1
:1003D000F200882319F08AE38093E8000895FC0175
:1003E0008485958597FD0BC09FB7F89482E0809334
:1003F000E9008091F2009FBF90E0019608959FB7B9
:10040000F89482E08093E9008091F2009FBF90E031
:100410000895089580E090E0089590E0FC01319700
:10042000EF30F105B0F5EA5AFF4F0C94640D80915E
:1004300080008F7703C0809180008F7D8093800043
:10044000089580918000877FF9CF84B58F7702C0AF
:1004500084B58F7D84BD0895809190008F7707C00B
:10046000809190008F7D03C080919000877F809362
:10047000900008958091C0008F7703C08091C000E4
:100480008F7D8093C00008958091C200877F809304
:10049000C20008951F93CF93DF93282F30E0F90116
:1004A000EE5CFE4F8491F901ED5EFE4FD491F901AF
:1004B000EC50FF4FC491CC23C1F0162F81110E9444
:1004C0000D02EC2FF0E0EE0FFF1FE852FF4FA59159
:1004D000B4919FB7F894111104C08C91D095D82392
:1004E00002C0EC91DE2BDC939FBFDF91CF911F9177
:1004F0000895CF93DF9390E0FC01ED5EFE4F2491D1
:10050000FC01EC50FF4F8491882361F190E0880F4B
:10051000991FFC01E653FF4FC591D491FC01E852AD
:10052000FF4FA591B491611109C09FB7F8948881DC
:10053000209582238883EC912E230BC0623061F4D6
:100540009FB7F8948881322F309583238883EC916C
:100550002E2B2C939FBF06C08FB7F894E8812E2BCB
:1005600028838FBFDF91CF9108953FB7F894809192
:10057000740190917501A0917601B091770126B533
:10058000A89B05C02F3F19F00196A11DB11D3FBFCB
:10059000BA2FA92F982F8827820F911DA11DB11D59
:1005A000BC01CD0142E0660F771F881F991F4A9555
:1005B000D1F708958F929F92AF92BF92CF92DF9220
:1005C000EF92FF926B017C010E94B5024B015C012E
:1005D000C114D104E104F104F1F00E94B502DC0180
:1005E000CB0188199909AA09BB09883E9340A10546
:1005F000B10570F321E0C21AD108E108F10888EED4
:10060000880E83E0981EA11CB11CC114D104E10422
:10061000F10419F7DDCFFF90EF90DF90CF90BF90FE
:10062000AF909F908F9008950F931F93CF93DF9378
:100630001F92CDB7DEB782E0898342E450E060E5E7
:1006400071E080E80E9470010E947609DC01129638
:100650000D911C9113970115110589F0D801ED91A9
:10066000FC910280F381E02DBE016F5F7F4FC801D6
:10067000099597FD04C0F80100851185ECCF8981AB
:100680000F90DF91CF911F910F9108956115710522
:1006900079F0FB0101900020E9F73197AF01461B8B
:1006A000570BDC01ED91FC910280F381E02D099460
:1006B00080E090E008950F931F93CF93DF93EC01B8
:1006C0000E9446038C0168E371E0CE010E9446035C
:1006D000800F911FDF91CF911F910F9108950C947E
:1006E00046038F929F92AF92BF92CF92DF92EF928A
:1006F000FF920F931F93CF93DF936C017B018A01CD
:1007000080910F01882309F45CC0809187018823C0
:1007100009F457C08091840180FF05C08091E000FA
:1007200082608093E000E801B12C8AEFA82E93E06C
:10073000892E2AE3922E209711F4BB20D9F10E9432
:10074000650981110AC0AA94AA20D9F161E070E07C
:1007500080E090E00E94DA02EECF282F30E0C2174E
:10076000D3070CF48C2F9FB7F8948092E900209166
:10077000E80025FF1DC0282F30E0C21BD30BF70176
:10078000815020F041914093F100FACFE20EF31E28
:10079000BB2019F09092E8000AC08091E80085FD26
:1007A00007C09092E800BB24B394209709F0B12CC5
:1007B0009FBFC1CF5D9884E6809385011016110616
:1007C00044F081E090E0F6019383828380E090E042
:1007D00001C0C801DF91CF911F910F91FF90EF9061
:1007E000DF90CF90BF90AF909F908F9008950E9420
:1007F000650990E008950F931F93CF93DF931F92A5
:10080000CDB7DEB78C01FC018485958597FF0EC0BE
:10081000CE0101960E943709019719F4898190E071
:1008200002C08FEF9FEFF80195878487F8018485D8
:1008300095850F90DF91CF911F910F910895CF93E0
:10084000DF931F92CDB7DEB7FC018485958597FDB8
:1008500005C02FEF3FEF358724870BC0CE010196EF
:100860000E943709019719F4898190E002C08FEF47
:100870009FEF0F90DF91CF910895CF93C82F809174
:1008800045028C3008F051C061E084E10E94790299
:1008900080914502E82FF0E09F01220F331FE20F05
:1008A000F31FE05EFD4F9081907C946190831092E5
:1008B0004602109247026CE00E94580D9CE0899F0E
:1008C000B001112440E050E09B01240F351FF901D5
:1008D000EE0FFF1F2E0F3F1FF901E05EFD4F9081CD
:1008E00096FD16C04F5F5F4F4C30510569F781117F
:1008F0000FC01092800082E08093810010928500EA
:1009000010928400B19A80916F00826080936F0092
:10091000E0914502F0E0CF01880F991FE80FF91F21
:10092000E05EFD4F80818064808362E370E080E060
:1009300090E00E94DA02CC2319F081E990E002C035
:1009400082E390E00E94A90864EF71E080E090E00B
:100950000E94DA02E0914502F0E0CF01880F991F72
:10096000E80FF91FE05EFD4F80818F7B8083CF9180
:1009700008951F920F920FB60F921124CF92DF921B
:10098000EF92FF920F931F932F933F934F935F9399
:100990006F937F938F939F93AF93BF93EF93FF9347
:1009A000CF93DF93CDB7DEB76C97DEBFCDBF10928C
:1009B000E9008091E80083FFFBC168E0CE01459625
:1009C0000E94970182EF8093E8008D8987FF05C020
:1009D0009091E80090FFFCCF03C09EEF9093E80059
:1009E000982F907609F0C6C09E894F89588D2F891F
:1009F000F88C91110CC0803829F480918301809388
:100A0000F10002C01092F1001092F10045C1913046
:100A100051F4811141C14130510509F03DC180912E
:100A200083018D7F0BC0933061F4811135C141305A
:100A3000510509F031C18091830182608093830167
:100A40002BC1953049F48091E80080FFFCCF822FC4
:100A500080688093E30020C1963009F05EC00B8D62
:100A60001C8D22E01092E900109281011092800109
:100A7000F21232C010927F0110927E010E94140384
:100A800099E0BE016F5F7F4FDB01E92F1D92EA9570
:100A9000E9F79983FA8291E09E8390EA98879AEF2A
:100AA00099872091800130918101275F3F4F3C83DE
:100AB0002B838D831092E9001092810110928001A6
:100AC00010937F0100937E0149E050E080E00E9496
:100AD00070010E941403E0C010937F0100937E0117
:100AE0000E947609DC0112960D911C911397011555
:100AF000110509F4BBC0D801ED91FC910480F5818A
:100B0000E02DBE016B5E7F4FC8010995009709F08B
:100B1000C7C0F80100851185EACF973009F445C1B7
:100B2000983021F481E08093F100B6C0993009F04B
:100B3000B3C0837009F039C1E1E1F1E081E031E057
:100B400096E32081211109C08EE78093EA0010927C
:100B5000EA008F89809387019FC08093E9003093DA
:100B6000EB0021912093EC009093ED008F5F873094
:100B700041F7EACF8B8D9C8D1092E9001092810194
:100B80001092800190937F0180937E01898D811165
:100B900053C08E899D89913A49F4813209F005C18B
:100BA00047E050E068E071E080E0BBC0913209F0BE
:100BB000FCC0833269F48F89988DA0E0B0E0809307
:100BC000040190930501A0930601B093070164C04E
:100BD000803269F48091E80082FFFCCF67E088E012
:100BE00091E00E9497018BEF8093E80055C082321C
:100BF00009F052C08F8980930F01EEEFFFE78591D6
:100C000094918B3F9C4D19F0E0E0F8E002C0EEEFCC
:100C1000FAE08091080190910901A0910A01B09138
:100C20000B01803B9440A105B10509F09EC0809165
:100C30000F0180FF79C099C00E947609FC010281F2
:100C400013810115110509F4B0C0D801ED91FC9193
:100C50000190F081E02DBE016B5E7F4FC8010995C8
:100C600081111AC0F80100851185EBCFF1E0FF1664
:100C700009F44EC0F3E0FF1298C08F89882309F46D
:100C80004AC0823089F440E862E181EB91E00E9441
:100C90003B01882309F489C08EEF8093E80088C067
:100CA00018161906CCF381C0813029F440E868E0B9
:100CB00088EA91E0ECCF833009F077C00E94760992
:100CC000DC011296ED90FC9013978E010F5F1F4F81
:100CD0006801E114F10479F0D701ED91FC910680EF
:100CE000F781E02DB801C7010995080F111DF70123
:100CF000E084F184EECFD8011C92F601019000202F
:100D0000E9F73197BF016C197D0940E0C601BFCFFB
:100D100066E971E002C062E971E0FB01449150E0D4
:100D200080E80E947001B8CFEE3F2AE0F20751F050
:100D3000808191818737A7E79A0721F09093FF0A76
:100D40008093FE0A87E797E7918380838091600014
:100D5000809382019BE088E10FB6F894A895809378
:100D600060000FBE9093600097CF8081918187379C
:100D7000974709F091CFA895809160008861809392
:100D800060008091820180936000EE3FBAE0FB0733
:100D900039F08091FE0A9091FF0A918380837CCF85
:100DA0001092FF0A1092FE0A77CF81E28093EB0047
:100DB0006C960FB6F894DEBF0FBECDBFDF91CF911A
:100DC000FF91EF91BF91AF919F918F917F916F9123
:100DD0005F914F913F912F911F910F91FF90EF9055
:100DE000DF90CF900F900FBE0F901F9018958F92AD
:100DF0009F92AF92BF92EF92FF920F931F93CF9368
:100E0000DF93CDB7DEB7A1970FB6F894DEBF0FBE64
:100E1000CDBF7C01FA01CB0119A2223008F42AE0EF
:100E20008E010F5D1F4F822E912CA12CB12CBF0182
:100E3000A50194010E94F50CF901CA0101501109A4
:100E40006A3014F4605D01C0695CD8016C93232B97
:100E5000242B252B61F7B801C7010E944603A196F8
:100E60000FB6F894DEBF0FBECDBFDF91CF911F91BB
:100E70000F91FF90EF90BF90AF909F908F9008954B
:100E8000CF92DF92EF92FF920F931F93CF93DF9356
:100E9000EC016A017B01E881F9810190F081E02D8C
:100EA0006DE209958C0144275527BA014C195D095B
:100EB0006E097F092AE0CE010E94F706800F911F7C
:100EC000DF91CF911F910F91FF90EF90DF90CF9026
:100ED00008952FB7F894609170017091710180911D
:100EE0007201909173012FBF08951F920F920FB658
:100EF0000F9211242F933F938F939F93AF93BF93A0
:100F00008091700190917101A0917201B091730173
:100F100030916F0123E0230F2D3720F40196A11D9E
:100F2000B11D05C026E8230F0296A11DB11D209317
:100F30006F018093700190937101A0937201B0933F
:100F400073018091740190917501A0917601B09127
:100F500077010196A11DB11D8093740190937501D5
:100F6000A0937601B0937701BF91AF919F918F913C
:100F70003F912F910F900FBE0F901F9018951F92C9
:100F80000F920FB60F9211242F933F934F935F93BD
:100F90006F937F938F939F93AF93BF93EF93FF9341
:100FA00080916E0187FF05C0109285001092840029
:100FB0001BC020916E01022E000C330B8091440265
:100FC00090E02817390784F480916E01082E000CF8
:100FD000990BFC01EE0FFF1F8E0F9F1FFC01E05EBF
:100FE000FD4F808186FD15C080916E018F5F8093DB
:100FF0006E0120916E01022E000C330B8091440291
:1010000090E028173907C4F480916E018C3064F1A8
:1010100013C080916E01082E000C990BFC01EE0F9D
:10102000FF1F8E0F9F1FFC01E05EFD4F808160E07F
:101030008F730E944A02D8CF8091840090918500DE
:10104000049680349C4918F480E49CE905C08091A2
:101050008400909185000496909389008093880085
:101060008FEF80936E013BC020918400309185000A
:1010700080916E01082E000C990BFC01EE0FFF1FF2
:101080008E0F9F1FFC01E05EFD4F81819281820FD8
:10109000931F909389008093880080916E01082EA1
:1010A000000C990BFC01EE0FFF1F8E0F9F1FFC0120
:1010B000E05EFD4F808186FF12C080916E01082E98
:1010C000000C990BFC01EE0FFF1F8E0F9F1FFC0100
:1010D000E05EFD4F808161E08F730E944A02FF91C4
:1010E000EF91BF91AF919F918F917F916F915F91A0
:1010F0004F913F912F910F900FBE0F901F90189519
:101100000E946A0D8F929F92AF92BF92CF92DF9210
:10111000EF92FF926B017C010E9469074B015C0119
:10112000C60ED71EE81EF91E0E94690768157905CC
:101130008A059B0528F0C616D706E806F906A0F72B
:10114000FF90EF90DF90CF90BF90AF909F908F90E7
:101150000895CF92DF92EF92FF92DC01A03282E0FD
:10116000B8070CF03EC0B7FD06C0A53BB1052CF09A
:10117000A4EBB0E002C0A0E0B0E08091460228E815
:1011800030E06901C81AD10887FDD394CC0CDD1C6E
:10119000CC0CDD1C0D2C000CEE08FF0880914702E2
:1011A00028E532E0281B310987FD3395220F331FD4
:1011B000220F331FA901330F660B770B9A01AB0186
:1011C0002C193D094E095F090E94410D24EB30E0C6
:1011D00040E050E00E94170DC20ED31EE41EF51E23
:1011E000D601909145029C3098F58091460248E8DE
:1011F00050E0481B510987FD5395440F551F440F7C
:10120000551FA417B5078CF08091470228E532E0FE
:10121000281B310987FD3395220F331F220F331FFF
:10122000AD012A173B070CF4A90142505109440FA4
:10123000551F2FB7F894892F90E0FC01EE0FFF1F88
:101240008E0F9F1FFC01E05EFD4F528341832FBF35
:10125000FF90EF90DF90CF900895AB01770F660B72
:10126000770B77FD0C9440072AE00C94F706209149
:101270008701211103C08FEF9FEF08955FB7F894A6
:1012800022E02093E9002091F20030E012161306CC
:1012900014F421E030E0422FFC0184E6415038F0A4
:1012A0002898809386019091F1009193F7CF2115B2
:1012B000310521F08091F200882319F05FBFC90148
:1012C00008958BE68093E800F9CF2FB7F89483E078
:1012D0008093E9009091E800892F807295FF04C007
:1012E0009091F20080E4891B2FBF089580914C02F9
:1012F00081110DC082E08093480284E0809349020E
:1013000010924B0210924A0281E080934C0288E4D2
:1013100092E008951F920F920FB60F9211248F93AF
:101320009F938091E1009091E100937F9093E10081
:1013300083FF0FC01092E90091E09093EB001092B0
:10134000EC0092E39093ED001092870198E0909367
:10135000F00082FF20C093E09093E9009091F200AA
:10136000992319F09AE39093E800909185019923CD
:1013700039F090918501915090938501992389F1DD
:1013800090918601992339F0909186019150909324
:101390008601992341F184FF10C08091E2008E7E86
:1013A00081608093E2008091E1008F7E8093E10074
:1013B000809184018E7E806111C080FF16C0809173
:1013C000E2008E7E80618093E2008091E1008E7E5B
:1013D0008093E100809184018E7E816080938401FE
:1013E00004C05D9ACDCF289AD6CF9F918F910F9050
:1013F0000FBE0F901F901895789484B5826084BDBD
:1014000084B5816084BD85B5826085BD85B5816008
:1014100085BD80916E00816080936E001092810086
:101420008091810082608093810080918100816041
:101430008093810080918000816080938000809102
:1014400091008260809391008091910081608093EF
:101450009100809190008160809390008091C10004
:1014600084608093C1008091C10082608093C1003C
:101470008091C10081608093C1008091C300816030
:101480008093C3008091C00082608093C0008091EF
:10149000C20081608093C20080917A008460809352
:1014A0007A0080917A00826080937A0080917A003D
:1014B000816080937A0080917A00806880937A00BE
:1014C0001092870110928301109284018091D700BD
:1014D00081608093D70080EA8093D80089B58061CD
:1014E00089BD89B5826089BD09B400FEFDCF61E088
:1014F00070E080E090E00E94DA028091D8008F7C5A
:1015000080618093D8008091E000807F8093E0002C
:101510008091E1008E7E8093E1008DE08093E20077
:10152000559A209A10921C0210921D0210921E02CF
:1015300010921F021092DA011092DB011092DC016E
:101540001092DD0168EB7BE080E090E00E94820871
:1015500088E891E090931B0280931A02CBE1D0E0DF
:1015600010910F016AE070E080E090E00E94DA02E2
:10157000111109C0219739F064E670E080E090E035
:101580000E94DA02EDCFE0911A02F0911B02CFEF38
:10159000DFEFD587C4870E9469076093DA017093F3
:1015A000DB018093DC019093DD0169E271E08091C1
:1015B0001A0290911B020E946F036AE070E080E0C3
:1015C00090E00E94820881E08093EE0160E085E077
:1015D0000E94790261E08DE00E9479026091000131
:1015E0008DE00E944A02D0939501C093940199EF37
:1015F000292E90E0392E22E3822E912CA12CB12CA1
:1016000034EF432E55245394612C712C00E010E0EC
:10161000E7E3F1E08491E8E1F1E0C491F101D491D4
:10162000DD23A1F081110E940D02ED2FF0E0EE0FFD
:10163000FF1FEA51FF4FA591B4918C91C82391E00F
:1016400080E009F490E0C92FD82F02C0C0E0D0E0BC
:101650006BE371E088E891E00E946F032AE0AE013D
:101660000D2E000C660B770B88E891E00E94F706C0
:1016700068E371E088E891E00E94460380910201EE
:10168000909103018C179D0709F4FEC04092E6017A
:101690005092E7016092E8017092E9011092EA012C
:1016A0001092EB011092EC011092ED018091DE019D
:1016B0009091DF01A091E001B091E1018093E201FE
:1016C0009093E301A093E401B093E5010E946907C0
:1016D0006093DE017093DF018093E0019093E1015C
:1016E0000E946907C090DA01D090DB01E090DC0134
:1016F000F090DD01DC01CB018C199D09AE09BF0919
:1017000082339105A105B10550F4A5019401281B70
:10171000390B4A0B5B0BCA01B9010E9482080E9477
:1017200069076093DA017093DB018093DC01909389
:10173000DD010E9469076B017C0164E471E0809126
:101740001A0290911B020E946F032AE041E050E0D0
:1017500060E070E080911A0290911B020E94F706EF
:101760006BE471E080911A0290911B020E946F035A
:101770002AE0B701A60180911A0290911B020E94F3
:10178000F7066DE471E080911A0290911B020E94AD
:101790006F038091DE019091DF01A091E001B09193
:1017A000E101B701A601481B590B6A0B7B0B2AE02C
:1017B00080911A0290911B020E94F7066DE471E07D
:1017C00080911A0290911B020E946F034091DE01EA
:1017D0005091DF016091E0017091E1018091E2019F
:1017E0009091E301A091E401B091E501481B590BF0
:1017F0006A0B7B0B2AE080911A0290911B020E94D7
:10180000F7066FE471E080911A0290911B020E942A
:101810006F03BE0180911A0290911B020E942D0954
:101820006FE471E080911A0290911B020E946F0395
:10183000609102017091030180911A0290911B0244
:101840000E942D0961E571E080911A0290911B02BE
:101850000E945B0365E070E080E090E00E948208F7
:101860000E9469076093DE017093DF018093E001BD
:101870009093E1010E94690760937A0170937B0164
:1018800080937C0190937D010E946907C0907A014A
:10189000D0907B01E0907C01F0907D01DC01CB01D8
:1018A0008C199D09AE09BF09C397A105B105A8F11F
:1018B00080917801909179018C179D0771F1D093F7
:1018C0007901C0937801C130D10509F581E090E03C
:1018D0002091000130910101232B11F080E090E074
:1018E000909301018093000168E571E088E891E040
:1018F0000E945B0380E00E943D0468EE73E080E09C
:1019000090E00E94DA0281E00E943D0406C063E696
:1019100071E088E891E00E945B03609100018DE036
:101920000E944A02D0930301C093020101151105E0
:1019300009F46ECE0E94000069CE10928B011092C5
:101940008A0188EE93E0A0E0B0E080938C01909350
:101950008D01A0938E01B0938F018BE191E0909364
:101960008901809388018FEF9FEF90939501809379
:1019700094011092DE011092DF011092E0011092AA
:10198000E1011092E2011092E3011092E401109241
:10199000E5011092E6011092E7011092E801109221
:1019A000E9011092EA011092EB011092EC01109201
:1019B000ED01809144028C30A0F491E0980F909357
:1019C00044028093450290E0FC01EE0FFF1F8E0F52
:1019D0009F1FFC01E05EFD4F88EB9BE092838183BB
:1019E00008958FEF809345020895A1E21A2EAA1B55
:1019F000BB1BFD010DC0AA1FBB1FEE1FFF1FA217BF
:101A0000B307E407F50720F0A21BB30BE40BF50BBB
:101A1000661F771F881F991F1A9469F76095709544
:101A2000809590959B01AC01BD01CF010895052ED5
:101A300097FB1EF400940E942E0D57FD07D00E94C4
:101A4000F50C07FC03D04EF40C942E0D50954095E8
:101A5000309521953F4F4F4F5F4F0895909580955A
:101A6000709561957F4F8F4F9F4F08950E94490D4C
:101A7000A59F900DB49F900DA49F800D911D1124E2
:101A80000895B7FF0C94360D0E94360D821B930B00
:101A90000895A29FB001B39FC001A39F700D811D47
:101AA0001124911DB29F700D811D1124911D089567
:101AB000991B79E004C0991F961708F0961B881FA0
:101AC0007A95C9F780950895EE0FFF1F0590F49160
:101AD000E02D099481E090E0F8940C946F0DF89457
:021AE000FFCF36
:101AE20001000100FFFFFFFF00E100000000000015
:101AF20000C1808100000000000000CE017103F7E8
:101B020003E401EF011F04FB03564D4450565F31BD
:101B12007C315F564D4450560D0A0072656164690E
:101B22006E672000564D4450455F003A323A007CC1
:101B3200005F564D44504500737769746368206FA7
:0E1B4200666600737769746368206F6E00003A
:00000001FF
