:100000000C94E3000C940B010C940B010C940B0169
:100010000C940B010C940B010C940B010C940B0130
:100020000C940B010C940B010C9479050C94EB05CA
:100030000C940B010C940B010C940B010C940B0110
:100040000C940B010C9473080C940B010C940B0191
:100050000C940B010C940B010C940B010C942908CB
:100060000C940B010C940B010C940B010C940B01E0
:100070000C940B010C940B010C940B010C940B01D0
:100080000C940B010C940B010C940B010C940B01C0
:100090000C940B010C940B010C940B010C940B01B0
:1000A0000C940B010C940B010C940B01740377035B
:1000B00066036A0370039803980398037B037F0326
:1000C000830389038D039803930300000000240039
:1000D00027002A002D003000000000002500280025
:1000E0002B002E0031000000000023002600290014
:1000F0002C002F000404040404030405020202027D
:1001000004030202020206060606060604040202B0
:100110000204040408020110408040102040804086
:10012000800802040180402010020110801020404D
:1001300040200000000200090F0000030401000C31
:1001400000000000000000000000000000000000AF
:10015000080B000202020100090400000102020073
:1001600000052400100105240101010424020605F4
:100170002406000107058103100040090401000264
:100180000A00000007050202400000070583024044
:1001900000000403090412010002EF0201404F1B9A
:1001A0000692000101020301537061726B46756E85
:1001B00000537061726B46756E2050726F204D69EE
:1001C00063726F00340911241FBECFEFDAE0DEBF87
:1001D000CDBF11E0A0E0B1E0ECE4F7E102C0059092
:1001E0000D92A435B107D9F721E0A4E5B1E001C033
:1001F0001D92A23FB207E1F710E0C3EED0E004C0C9
:100200002197FE010E94990BC23ED107C9F70E94B7
:100210006C090C94A40B0C940000CF92DF92EF9227
:10022000FF92DC01A03282E0B8070CF03EC0B7FDBF
:1002300006C0A53BB1052CF0A4EBB0E002C0A0E0E5
:10024000B0E08091F00128E830E06901C81AD108D7
:1002500087FDD394CC0CDD1CCC0CDD1C0D2C000CCC
:10026000EE08FF088091F10128E532E0281B3109F2
:1002700087FD3395220F331F220F331FA901330F40
:10028000660B770B9A01AB012C193D094E095F09EA
:100290000E94540B24EB30E040E050E00E942A0B17
:1002A000C20ED31EE41EF51ED6019091EF019C30C4
:1002B00098F58091F00148E850E0481B510987FD0E
:1002C0005395440F551F440F551FA417B5078CF0C5
:1002D0008091F10128E532E0281B310987FD339533
:1002E000220F331F220F331FAD012A173B070CF4D7
:1002F000A90142505109440F551F2FB7F894892F77
:1003000090E0FC01EE0FFF1F8E0F9F1FFC01E653D4
:10031000FE4F528341832FBFFF90EF90DF90CF902D
:10032000089520917901211103C08FEF9FEF089567
:100330005FB7F89422E02093E9002091F20030E0CA
:100340001216130614F421E030E0422FFC0184E67B
:10035000415038F02898809378019091F100919362
:10036000F7CF2115310521F08091F200882319F093
:100370005FBFC90108958BE68093E800F9CF2FB7DE
:10038000F89483E08093E9009091E800892F8072CF
:1003900095FF04C09091F20080E4891B2FBF08955F
:1003A0008091700181110DC082E080936C0184E026
:1003B00080936D0110926F0110926E0181E0809325
:1003C00070018CE691E008954091660150916701BB
:1003D000209164013091650142175307B4F4909164
:1003E000E8009570E1F39091E80092FD19C08093C8
:1003F000F100809166019091670101968F739927B2
:10040000892B19F48EEF8093E8008091660190911A
:1004100067010196909367018093660181E00895DA
:1004200080E00895DF92EF92FF920F931F93CF9396
:10043000DF93D82EF92EE42E062F10E0C801019686
:10044000880F0E94E40183E00E94E401CD2DDF2D9E
:100450000C0F1D1FC017D10789F0E7FE03C0FE0176
:10046000849101C088810E94E401F82E80E00E94FE
:10047000E4018F2121968111EDCF01C081E0DF9150
:10048000CF911F910F91FF90EF90DF900895DF9231
:10049000EF92FF920F931F93CF93DF93D82E8A0191
:1004A0007B01E40EF51EEB01CE15DF0571F0D7FEE2
:1004B00003C0FE01849101C088810E94E40121965D
:1004C0008111F2CF8FEF9FEF01C0C801DF91CF9173
:1004D0001F910F91FF90EF90DF9008950F931F935E
:1004E000CF93DF931F92CDB7DEB782E0898342E4DA
:1004F00050E060E571E080E80E9447020E94D00170
:10050000DC0112960D911C9113970115110589F0CC
:10051000D801ED91FC910280F381E02DBE016F5F67
:100520007F4FC801099597FD04C0F801008511852A
:10053000ECCF89810F90DF91CF911F910F9108959A
:10054000615030F02091F100FC0120830196F8CF3A
:10055000289884E6809378010895CF92DF92EF92F5
:10056000FF920F931F93CF93DF936C017A018B015E
:10057000C0E0D0E0CE15DF0581F0D8016D918D018E
:10058000D601ED91FC910190F081E02DC601099515
:10059000892B11F02196EECF7E01C701DF91CF911B
:1005A0001F910F91FF90EF90DF90CF900895CF9320
:1005B000DF931F92CDB7DEB76983DC01ED91FC912B
:1005C0000280F381E02D41E050E0BE016F5F7F4F7C
:1005D00009950F90DF91CF91089583E08093E90012
:1005E0008091F200882319F08AE38093E80008954F
:1005F0000E94BF0190E00895CF93DF931F92CDB783
:10060000DEB7FC018485958597FD05C02FEF3FEF90
:10061000358724870BC0CE0101960E949101019776
:1006200019F4898190E002C08FEF9FEF0F90DF9166
:10063000CF9108950F931F93CF93DF931F92CDB760
:10064000DEB78C01FC018485958597FF0EC0CE0135
:1006500001960E949101019719F4898190E002C0EE
:100660008FEF9FEFF80195878487F8018485958542
:100670000F90DF91CF911F910F910895FC01848518
:10068000958597FD0BC09FB7F89482E08093E900B1
:100690008091F2009FBF90E0019608959FB7F89473
:1006A00082E08093E9008091F2009FBF90E008957E
:1006B000089580E090E0089590E0FC013197EF30DC
:1006C000F105B0F5EA5AFF4F0C94990B8091800028
:1006D0008F7703C0809180008F7D80938000089584
:1006E00080918000877FF9CF84B58F7702C084B571
:1006F0008F7D84BD0895809190008F7707C0809191
:1007000090008F7D03C080919000877F8093900040
:1007100008958091C0008F7703C08091C0008F7DC5
:100720008093C00008958091C200877F8093C200AB
:1007300008951F93CF93DF93282F30E0F901EE5CEB
:10074000FE4F8491F901ED5EFE4FD491F901EC501A
:10075000FF4FC491CC23C1F0162F81110E945C037E
:10076000EC2FF0E0EE0FFF1FE852FF4FA591B49180
:100770009FB7F894111104C08C91D095D82302C072
:10078000EC91DE2BDC939FBFDF91CF911F910895F9
:10079000CF93DF9390E0FC01ED5EFE4F2491FC01CE
:1007A000EC50FF4F8491882361F190E0880F991FEE
:1007B000FC01E653FF4FC591D491FC01E852FF4F75
:1007C000A591B491611109C09FB7F89488812095D3
:1007D00082238883EC912E230BC0623061F49FB793
:1007E000F8948881322F309583238883EC912E2BC7
:1007F0002C939FBF06C08FB7F894E8812E2B2883D7
:100800008FBFDF91CF9108953FB7F8948091560143
:1008100090915701A0915801B091590126B5A89B1C
:1008200005C02F3F19F00196A11DB11D3FBFBA2F82
:10083000A92F982F8827820F911DA11DB11DBC01E2
:10084000CD0142E0660F771F881F991F4A95D1F7A7
:1008500008958F929F92AF92BF92CF92DF92EF92C4
:10086000FF926B017C010E9404044B015C01C114E6
:10087000D104E104F104F1F00E940404DC01CB0195
:1008800088199909AA09BB09883E9340A105B105B9
:1008900070F321E0C21AD108E108F10888EE880E51
:1008A00083E0981EA11CB11CC114D104E104F10421
:1008B00019F7DDCFFF90EF90DF90CF90BF90AF9012
:1008C0009F908F9008958F929F92AF92BF92CF92F8
:1008D000DF92EF92FF920F931F93CF93DF936C0100
:1008E0007B018A0180911101882309F45CC0809109
:1008F0007901882309F457C080916A0180FF05C0FF
:100900008091E00082608093E000E801B12C8AEFE2
:10091000A82E93E0892E2AE3922E209711F4BB2073
:10092000D9F10E94BF0181110AC0AA94AA20D9F16D
:1009300061E070E080E090E00E942904EECF282F73
:1009400030E0C217D3070CF48C2F9FB7F894809235
:10095000E9002091E80025FF1DC0282F30E0C21BD0
:10096000D30BF701815020F041914093F100FACF71
:10097000E20EF31EBB2019F09092E8000AC08091AD
:10098000E80085FD07C09092E800BB24B39420974F
:1009900009F0B12C9FBFC1CF5D9884E680936B01B5
:1009A0001016110644F081E090E0F60193838283F3
:1009B00080E090E001C0C801DF91CF911F910F91BD
:1009C000FF90EF90DF90CF90BF90AF909F908F906F
:1009D0000895CF93C82F8091EF018C3008F051C05B
:1009E00061E084E10E94C8038091EF01E82FF0E00C
:1009F0009F01220F331FE20FF31FE653FE4F90813A
:100A0000907C946190831092F0011092F1016CE05F
:100A10000E948D0B9CE0899FB001112440E050E0C2
:100A20009B01240F351FF901EE0FFF1F2E0F3F1FF3
:100A3000F901E653FE4F908196FD16C04F5F5F4F60
:100A40004C30510569F781110FC01092800082E08F
:100A5000809381001092850010928400B19A809159
:100A60006F00826080936F00E091EF01F0E0CF01B2
:100A7000880F991FE80FF91FE653FE4F80818064AD
:100A8000808362E370E080E090E00E942904CC2340
:100A900019F088E790E002C082E390E00E940D0127
:100AA00064EF71E080E090E00E942904E091EF01A2
:100AB000F0E0CF01880F991FE80FF91FE653FE4FB2
:100AC00080818F7B8083CF910895009769F0FC012E
:100AD00001900020E9F73197AF01481B590BBC0189
:100AE0008AE791E00C94630480E090E008950E940E
:100AF0009F0B1F920F920FB60F9211248F939F930B
:100B00008091E1009091E100937F9093E10083FF59
:100B10000FC01092E90091E09093EB001092EC006E
:100B200092E39093ED001092790198E09093F00099
:100B300082FF20C093E09093E9009091F200992306
:100B400019F09AE39093E80090916B01992339F0A2
:100B500090916B01915090936B01992389F1909141
:100B60007801992339F09091780191509093780110
:100B7000992341F184FF10C08091E2008E7E816054
:100B80008093E2008091E1008F7E8093E10080916C
:100B90006A018E7E806111C080FF16C08091E200E4
:100BA0008E7E80618093E2008091E1008E7E809352
:100BB000E10080916A018E7E816080936A0104C0A9
:100BC0005D9ACDCF289AD6CF9F918F910F900FBE6F
:100BD0000F901F9018951F920F920FB60F9211242D
:100BE000CF92DF92EF92FF920F931F932F933F9339
:100BF0004F935F936F937F938F939F93AF93BF9325
:100C0000EF93FF93CF93DF93CDB7DEB76C97DEBF43
:100C1000CDBF1092E9008091E80083FFFBC168E03E
:100C2000CE0145960E94A00282EF8093E8008D8954
:100C300087FF05C09091E80090FFFCCF03C09EEFB6
:100C40009093E800982F907609F0C6C09E894F894E
:100C5000588D2F89F88C91110CC0803829F480911F
:100C600069018093F10002C01092F1001092F1002E
:100C700045C1913051F4811141C14130510509F014
:100C80003DC1809169018D7F0BC0933061F481116A
:100C900035C14130510509F031C18091690182604F
:100CA000809369012BC1953049F48091E80080FF61
:100CB000FCCF822F80688093E30020C1963009F03A
:100CC0005EC00B8D1C8D22E01092E900109267012E
:100CD00010926601F21232C0109265011092640106
:100CE0000E946E0299E0BE016F5F7F4FDB01E92F2A
:100CF0001D92EA95E9F79983FA8291E09E8390EA42
:100D000098879AEF99872091660130916701275F54
:100D10003F4F3C832B838D831092E9001092670133
:100D200010926601109365010093640149E050E060
:100D300080E00E9447020E946E02E0C010936501AD
:100D4000009364010E94D001DC0112960D911C9168
:100D500013970115110509F4BBC0D801ED91FC9161
:100D60000480F581E02DBE016B5E7F4FC8010995BF
:100D7000009709F0C7C0F80100851185EACF9730C8
:100D800009F445C1983021F481E08093F100B6C0A8
:100D9000993009F0B3C0837009F039C1E3E1F1E0A3
:100DA00081E031E096E32081211109C08EE7809334
:100DB000EA001092EA008F89809379019FC08093A6
:100DC000E9003093EB0021912093EC009093ED002B
:100DD0008F5F873041F7EACF8B8D9C8D1092E900B1
:100DE00010926701109266019093650180936401EF
:100DF000898D811153C08E899D89913A49F4813240
:100E000009F005C147E050E06AE071E080E0BBC056
:100E1000913209F0FCC0833269F48F89988DA0E08B
:100E2000B0E08093060190930701A0930801B0936E
:100E3000090164C0803269F48091E80082FFFCCF30
:100E400067E08AE091E00E94A0028BEF8093E800C7
:100E500055C0823209F052C08F8980931101EEEFA4
:100E6000FFE7859194918B3F9C4D19F0E0E0F8E00D
:100E700002C0EEEFFAE080910A0190910B01A0917F
:100E80000C01B0910D01803B9440A105B10509F022
:100E90009EC08091110180FF79C099C00E94D0014D
:100EA000FC01028113810115110509F4B0C0D801BC
:100EB000ED91FC910190F081E02DBE016B5E7F4FC2
:100EC000C801099581111AC0F80100851185EBCF81
:100ED000F1E0FF1609F44EC0F3E0FF1298C08F89CD
:100EE000882309F44AC0823089F440E862E181EB4A
:100EF00091E00E941202882309F489C08EEF80934A
:100F0000E80088C018161906CCF381C0813029F496
:100F100040E868E088EA91E0ECCF833009F077C0E0
:100F20000E94D001DC011296ED90FC9013978E0187
:100F30000F5F1F4F6801E114F10479F0D701ED91C3
:100F4000FC910680F781E02DB801C7010995080FD3
:100F5000111DF701E084F184EECFD8011C92F60157
:100F600001900020E9F73197BF016C197D0940E03D
:100F7000C601BFCF66E971E002C062E971E0FB0122
:100F8000449150E080E80E944702B8CFEE3F2AE04B
:100F9000F20751F0808191818737A7E79A0721F006
:100FA0009093FF0A8093FE0A87E797E791838083F7
:100FB00080916000809368019BE088E10FB6F8940F
:100FC000A895809360000FBE9093600097CF8081BA
:100FD00091818737974709F091CFA895809160005C
:100FE0008861809360008091680180936000EE3F8B
:100FF000BAE0FB0739F08091FE0A9091FF0A9183D5
:1010000080837CCF1092FF0A1092FE0A77CF81E294
:101010008093EB006C960FB6F894DEBF0FBECDBF89
:10102000DF91CF91FF91EF91BF91AF919F918F9100
:101030007F916F915F914F913F912F911F910F91F0
:10104000FF90EF90DF90CF900F900FBE0F901F900A
:1010500018951F920F920FB60F9211242F933F9362
:101060008F939F93AF93BF9380915A0190915B01AF
:10107000A0915C01B0915D013091550123E0230FF7
:101080002D3720F40196A11DB11D05C026E8230FC0
:101090000296A11DB11D2093550180935A01909392
:1010A0005B01A0935C01B0935D018091560190912A
:1010B0005701A0915801B09159010196A11DB11D90
:1010C0008093560190935701A0935801B093590112
:1010D000BF91AF919F918F913F912F910F900FBE34
:1010E0000F901F9018951F920F920FB60F92112418
:1010F0002F933F934F935F936F937F938F939F9320
:10110000AF93BF93EF93FF938091540187FF05C086
:1011100010928500109284001BC020915401022E71
:10112000000C330B8091EE0190E02817390784F40E
:1011300080915401082E000C990BFC01EE0FFF1F4B
:101140008E0F9F1FFC01E653FE4F808186FD15C068
:10115000809154018F5F8093540120915401022E9D
:10116000000C330B8091EE0190E028173907C4F48E
:10117000809154018C3064F113C080915401082E89
:10118000000C990BFC01EE0FFF1F8E0F9F1FFC013F
:10119000E653FE4F808160E08F730E949903D8CFA1
:1011A0008091840090918500049680349C4918F4C5
:1011B00080E49CE905C080918400909185000496AC
:1011C00090938900809388008FEF809354013BC0F7
:1011D000209184003091850080915401082E000CEC
:1011E000990BFC01EE0FFF1F8E0F9F1FFC01E653B2
:1011F000FE4F81819281820F931F9093890080938B
:10120000880080915401082E000C990BFC01EE0F10
:10121000FF1F8E0F9F1FFC01E653FE4F808186FF4C
:1012200012C080915401082E000C990BFC01EE0FA6
:10123000FF1F8E0F9F1FFC01E653FE4F808161E070
:101240008F730E949903FF91EF91BF91AF919F918E
:101250008F917F916F915F914F913F912F910F905F
:101260000FBE0F901F90189510927D0110927C0177
:1012700088EE93E0A0E0B0E080937E0190937F0140
:10128000A0938001B09381018DE191E090937B0167
:1012900080937A018FEF9FEF90938701809386016F
:1012A0008091EE018C30A0F491E0980F9093EE01C4
:1012B0008093EF0190E0FC01EE0FFF1F8E0F9F1F48
:1012C000FC01E653FE4F88EB9BE0928381830895F7
:1012D0008FEF8093EF010895CF93DF93CDB7DEB703
:1012E000A1970FB6F894DEBF0FBECDBF789484B53A
:1012F000826084BD84B5816084BD85B5826085BD12
:1013000085B5816085BD80916E00816080936E009F
:101310001092810080918100826080938100809191
:101320008100816080938100809180008160809342
:101330008000809191008260809391008091910063
:1013400081608093910080919000816080939000F3
:101350008091C10084608093C1008091C10082604F
:101360008093C1008091C10081608093C100809111
:10137000C30081608093C3008091C000826080932D
:10138000C0008091C20081608093C20080917A0089
:10139000846080937A0080917A00826080937A00E2
:1013A00080917A00816080937A0080917A008068D1
:1013B00080937A00109279011092690110926A016B
:1013C0008091D70081608093D70080EA8093D80015
:1013D00089B5806189BD89B5826089BD09B400FE87
:1013E000FDCF61E070E080E090E00E9429048091F0
:1013F000D8008F7C80618093D8008091E000807F4E
:101400008093E0008091E1008E7E8093E1008DE08A
:101410008093E200559A209A60E085E00E94C8031C
:1014200061E08DE00E94C803609102018DE00E949E
:1014300099038FEF9FEF909387018093860181E05E
:101440000E94E90428E1222E21E0322E39EF832E7A
:1014500030E0932E4AE0442E512C612C712CAA24AA
:10146000A394B12CE7E3F1E08491F1011491F4012C
:1014700004910023A1F081110E945C03E02FF0E0B1
:10148000EE0FFF1FEA51FF4FA591B4918C911823E5
:1014900091E080E009F490E0092F182F02C000E0ED
:1014A00010E080910401909105018017910799F057
:1014B0002FB7F89480915A0190915B01A0915C0143
:1014C000B0915D012FBF8093600190936101A09363
:1014D0006201B09363012FB7F89480915A01909103
:1014E0005B01A0915C01B0915D012FBF4091600153
:1014F000509161016091620170916301841B950BB1
:10150000A60BB70BC397A105B10508F492C0809153
:101510005E0190915F018017910709F48AC01093D2
:101520005F0100935E0101151105D9F481E090E09F
:101530002091020130910301232B11F080E090E013
:1015400090930301809302018BE291E00E94650574
:1015500086E391E00E94650510920101109200015E
:1015600068C089E391E00E94650586E391E00E94EE
:10157000650583E491E00E946505209100013091AA
:1015800001016901330FEE08FF08F7FE20C06DE28C
:101590008AE791E00E94D70222273327A9012C195C
:1015A0003D094E095F0919A2CE0181967C01CA014D
:1015B000B901A30192010E945C0B605DF701629387
:1015C0007F01211531054105510589F715C0A70196
:1015D000960119A2CE0181967C01CA01B901A3012D
:1015E00092010E945C0B605DF70162937F012115FF
:1015F00031054105510589F7C7010E94650586E35C
:1016000091E00E9465058091000190910101892B74
:1016100061F480E00E94E90464EF71E080E090E012
:101620000E94290481E00E94E904B0920101A09285
:101630000001609102018DE00E9499031093050161
:101640000093040180E090E0892B09F40BCF0E9405
:10165000000005CF052E97FB1EF400940E94410B5D
:1016600057FD07D00E945C0B07FC03D04EF40C948E
:10167000410B50954095309521953F4F4F4F5F4F0F
:10168000089590958095709561957F4F8F4F9F4FEE
:1016900008950E947E0BA59F900DB49F900DA49F6E
:1016A000800D911D11240895B7FF0C94490B0E94E1
:1016B000490B821B930B0895A1E21A2EAA1BBB1B98
:1016C000FD010DC0AA1FBB1FEE1FFF1FA217B3070E
:1016D000E407F50720F0A21BB30BE40BF50B661F24
:1016E000771F881F991F1A9469F7609570958095E8
:1016F00090959B01AC01BD01CF010895A29FB0015F
:10170000B39FC001A39F700D811D1124911DB29F35
:10171000700D811D1124911D0895991B79E004C05D
:10172000991F961708F0961B881F7A95C9F7809520
:101730000895EE0FFF1F0590F491E02D099481E0CC
:0C17400090E0F8940C94A40BF894FFCFF8
:10174C00010001000100FFFFFFFF00E100000000AD
:10175C00000000C1808100000000000000D702637F
:10176C0004F802ED023E03FC021A037377697463FA
:10177C0068206F6666000D0A0073776974636820D1
:10178C006F6E006C617374427574746F6E53746118
:04179C007465200050
:1070000055C000006EC000006CC000006AC00000E7
:1070100068C0000066C0000064C0000062C00000DC
:1070200060C000005EC00000FCC400005AC0000048
:1070300058C0000056C0000054C0000052C00000FC
:1070400050C000005DC000004CC000004AC00000FD
:1070500048C0000046C0000044C0000042C000001C
:1070600040C000003EC000003CC000003AC000002C
:1070700038C0000036C0000034C0000032C000003C
:1070800030C000002EC000002CC000002AC000004C
:1070900028C0000026C0000024C0000022C000005C
:1070A00020C000001EC000001CC0000011241FBE34
:1070B000CFEFDAE0DEBFCDBF11E0A0E0B1E0E6E463
:1070C000FFE702C005900D92A43BB107D9F711E08C
:1070D000A4EBB1E001C01D92AD3CB107E1F74FD385
:1070E00030C78ECFF89410926F001092810081E02B
:1070F00085BF15BE47985D9A289A0C9400000895A4
:107100001F920F920FB60F9211242F938F939F937C
:10711000EF93FF9310928500109284008091B40148
:107120009091B501009741F001979093B50180933C
:10713000B401892B09F45D9A8091B6019091B70151
:10714000009741F001979093B7018093B601892B86
:1071500009F4289A8091BA019091BB01019690930D
:10716000BB018093BA01E0E0F0E0859194918F5FDC
:107170009F4F49F08091B8019091B9010196909389
:10718000B9018093B801FF91EF919F918F912F9159
:107190000F900FBE0F901F90189584E08093E90028
:1071A0000DC08091E8008B778093E80003C08EB318
:1071B000882351F08091E80082FFF9CF8091E800A8
:1071C00085FFEFCF8091F1000895982F83E08093A1
:1071D000E9008091E80085FD0DC08091E8008E7780
:1071E0008093E80003C08EB3882369F08091E800A3
:1071F00080FFF9CF9093F1005D9884E690E0909342
:10720000B5018093B40108954F925F926F927F927F
:107210008F929F92AF92BF92CF92DF92EF92FF92A6
:107220000F931F93CF93DF9384E08093E9008091C5
:10723000E80082FF57C2289884E690E09093B70157
:107240008093B601AADF182F853481F48CE49DE188
:107250009093B9018093B80107B600FCFDCFF9996E
:10726000FECF81E180935700E89503C0843519F47F
:1072700094DF8DE00DC28C34E1F38035D1F3843797
:1072800021F484E4A2DF80E003C2813611F489E5B1
:10729000FFC18134B1F481DF182F7FDF90E0880FC8
:1072A000991FAA2797FDA095BA2F312F330F20E001
:1072B000442737FD4095542F822B932BA42BB52BBD
:1072C000B8C1803711F483E5E3C1833549F4C0E0E8
:1072D000D1E089917ADF21E0C730D207D1F7D9C157
:1072E000863521F481E371DF80E3D2C1833731F445
:1072F00087E86BDF85E969DF8EE1CAC18536B9F4BD
:10730000E0E0F0E093E085E090935700E89507B661
:1073100000FCFDCF80935700E89507B600FCFDCF39
:10732000E058FF4FA0E7E030FA0771F7A2CF8237AD
:1073300039F4E1E0F0E089E0809357008491A8C13E
:10734000863439F4E0E0F0E089E0809357008491DE
:107350009FC18E3439F4E3E0F0E089E08093570078
:10736000849196C1813539F4E2E0F0E089E08093C0
:10737000570084918DC1823631F489E526DF80E0A3
:1073800024DF80E885C1823419F0873609F0E5C032
:107390001092B9011092B80100DF082FFEDEF82E1E
:1073A000FCDE682E8554823008F071C1902F80E099
:1073B000CF2DD0E0C82BD92B10926F00173609F0D3
:1073C0004BC081E180935700E895DD24CC24C39421
:1073D0003FC0E090BD01F090BE010091BF0110914F
:1073E000C001B6E46B16D9F4ED2DF0E0EE29FF29CB
:1073F000E4918E2FEADEDD2081F082E090E0A0E0D3
:10740000B0E0E80EF91E0A1F1B1FE092BD01F092CA
:10741000BE010093BF011093C001DC2418C0D80145
:10742000C701B695A7959795879575D5CEDE82E06D
:1074300090E0A0E0B0E0E80EF91E0A1F1B1FE092EA
:10744000BD01F092BE010093BF011093C0012197CE
:10745000209709F0BECF7DC08090BD019090BE0105
:10746000A090BF01B090C00196E4691609F05DC01C
:1074700083E0F40180935700E89507B600FCFDCF48
:1074800054C0F6E46F1661F5772031F1E090BD014C
:10749000F090BE010091BF011091C0017EDED82E98
:1074A000CC24852D90E08C299D29F7010C01409278
:1074B0005700E895112482E090E0A0E0B0E0E80EEB
:1074C000F91E0A1F1B1FE092BD01F092BE0100933E
:1074D000BF011093C00102C060DE582E742423C087
:1074E000E090BD01F090BE010091BF011091C0017C
:1074F00016950795F794E79450DE682FC70113D5CA
:107500008091BD019091BE01A091BF01B091C001D9
:107510000296A11DB11D8093BD019093BE01A09361
:10752000BF01B093C001219704C05524772444249F
:107530004394209709F0A5CF96E4691641F485E0BD
:10754000F40180935700E89507B600FCFDCF8DE06D
:107550003CDE82E080936F009CC0833471F4009124
:10756000BD011091BE0119DE90E021E0F8010C018F
:1075700020935700E89511247CCE833619F5E090CE
:10758000BD01F090BE010091BF011091C00105DE68
:10759000F701E16090E021E00C0120935700E895AD
:1075A000112482E090E0A0E0B0E0E80EF91E0A1F8E
:1075B0001B1FE092BD01F092BE010093BF0110932A
:1075C000C00157CE8D3661F4E091BD01F091BE014E
:1075D00085E080935700E89507B600FCFDCF49CEC3
:1075E000823551F4E091BD01F091BE0105911491F5
:1075F000812FEBDD802F4CC0843421F5E090BD015C
:10760000F090BE010091BF011091C0011695079541
:10761000F794E794C2DD682FC70185D48091BD013E
:107620009091BE01A091BF01B091C0010296A11D31
:10763000B11D8093BD019093BE01A093BF01B09393
:10764000C00117CE843609F5E090BD01F090BE016F
:107650000091BF011091C001D801C701B695A7954F
:107660009795879558D4B1DD82E090E0A0E0B0E036
:10767000E80EF91E0A1F1B1FE092BD01F092BE0129
:107680000093BF011093C00104C08B3111F08FE350
:107690009CDD83E08093E9009091E8008091E80010
:1076A0008E778093E80095FF04C010C08EB38823C6
:1076B000C9F08091E80080FFF9CF8091E8008E77D3
:1076C0008093E80003C08EB3882361F08091E800C6
:1076D00080FFF9CF84E08093E9008091E8008B7708
:1076E0008093E800DF91CF911F910F91FF90EF9071
:1076F000DF90CF90BF90AF909F908F907F906F90D2
:107700005F904F9008959091C501892F8F778132B6
:1077100049F58091C6018032A1F0813219F5913A84
:1077200009F58091E800877F8093E8008CE091E084
:1077300067E070E027D28091E8008B778093E800C3
:107740000895913279F48091E800877F8093E80072
:107750008CE091E067E070E079D28091E8008E776C
:107760008093E800089582E061EC42E0D1D083E0AC
:1077700061E842E1CDD084E060E842E1C9C01F93F6
:10778000209100081092000844B714BE88E10FB69B
:10779000F89480936000109260000FBE80E8E0E0F3
:1077A000F0E00FB6F89480936100E09361000FBEA3
:1077B00031E035BF92E095BF3F9A209A559A809369
:1077C00061001092610047985D9A289A1092890092
:1077D0008AEF8093880090936F0083E0809381000C
:1077E000859194918F5F9F4F11F03093BC01942F3E
:1077F00041FF19C0809109012817A9F08093000862
:10780000789480911301882339F08091BA01909186
:10781000BB018F5E9240C8F3F8941092000881E09B
:10782000809313010CC090FF04C08091BC01882399
:1078300051F493FF09C080910901281729F0809124
:10784000BC01882309F04EDCD4D078941092B901A1
:107850001092B8011EEF20C0D7DC4BD38091B80145
:107860009091B90181549F4110F0109213018091C1
:10787000C1019091C20101969093C2018093C10110
:10788000292F97FF03C0512F591B252F220F28178F
:1078900010F4479801C0479A809113018823E1F6BC
:1078A0008091E00081608093E0001CDC80E090E04B
:1078B0001F910895FA01923049F0933061F09130B0
:1078C000F9F484E191E022E130E01EC086E291E02B
:1078D0002EE330E019C0882329F484E691E024E007
:1078E00030E012C0813029F488E691E02EE130E0EA
:1078F0000BC0823029F488E891E02AE230E004C02D
:1079000080E090E020E030E091838083C901089519
:107910008093E9008091EB0081608093EB001092EE
:10792000ED006093EC004093ED008091EE00881F25
:107930008827881F08958091C50188238CF403C08F
:107940008EB38823B1F08091E80082FFF9CF809157
:10795000E8008B778093E80008958EB3882349F080
:107960008091E80080FFF9CF8091E8008E778093C6
:10797000E8000895EF92FF920F931F9345D04CD0EB
:1079800008ED10E0F80180818F7780838081806826
:10799000808380818F7D808319BC1EBA1092C301C1
:1079A00080EEE82EF12CF70180818B7F8083F80137
:1079B00080818160808380E060E042E0A9DFE1EEC9
:1079C000F0E080818E7F8083E2EEF0E08081816054
:1079D0008083808188608083F70180818E7F8083AF
:1079E000F8018081806180831F910F91FF90EF905B
:1079F0000895E7EDF0E08081816080838AE482BFB2
:107A000081E08093C401B6CFE8EDF0E080818E7F05
:107A100080831092E20008951092DA001092E10043
:107A200008951F920F920FB60F9211242F933F9338
:107A30004F935F936F937F938F939F93AF93BF9376
:107A4000EF93FF938091DA0080FF1BC08091D800F4
:107A500080FF17C08091DA008E7F8093DA008091DA
:107A6000D90080FF0BC080E189BD82E189BD09B4E6
:107A700000FEFDCF81E08EBB3BD203C019BC1EBA15
:107A800037D28091E10080FF17C08091E20080FF33
:107A900013C08091E2008E7F8093E2008091E2002B
:107AA00080618093E2008091D80080628093D8004A
:107AB00019BC85E08EBB1CD28091E10084FF2CC0F4
:107AC0008091E20084FF28C080E189BD82E189BD08
:107AD00009B400FEFDCF8091D8008F7D8093D8003F
:107AE0008091E1008F7E8093E1008091E2008F7EA3
:107AF0008093E2008091E20081608093E2008091B7
:107B0000C301882331F48091E30087FD02C081E046
:107B100001C084E08EBBECD18091E10083FF21C0E5
:107B20008091E20083FF1DC08091E100877F8093F8
:107B3000E10082E08EBB1092C3018091E1008E7F54
:107B40008093E1008091E2008E7F8093E20080913B
:107B5000E20080618093E20080E060E042E0D8DEF5
:107B6000C7D1FF91EF91BF91AF919F918F917F917D
:107B70006F915F914F913F912F910F900FBE0F909A
:107B80001F9018959C014091CB015091CC01461754
:107B9000570718F4F90190E044C06115710511F020
:107BA000AB01F8CF8091E8008E778093E80040E049
:107BB00050E0F0CF8EB3882309F444C0853009F437
:107BC00043C08091E80083FF02C081E00895809166
:107BD000E80082FD31C08091E80080FF22C08091E2
:107BE000F3009091F200782F60E0292F30E0262BEF
:107BF000372B07C081918093F100415050402F5F97
:107C00003F4F4115510519F02830310598F390E0A8
:107C10002830310509F491E08091E8008E77809357
:107C2000E8004115510531F6992321F605C08EB3C0
:107C3000882341F0853041F08091E80082FFF7CF42
:107C400080E0089582E0089583E008959C01611525
:107C5000710529F48091E8008B778093E800F901A1
:107C600026C08EB3882391F1853091F18091E80090
:107C700083FF02C081E008958091E80082FFF1CF88
:107C800006C08091F10081936150704059F02091BD
:107C9000F3008091F200322F20E090E0822B932BB2
:107CA000892B79F78091E8008B778093E800611544
:107CB0007105B9F605C08EB3882341F0853041F0D7
:107CC0008091E80080FFF7CF80E0089582E008957A
:107CD00083E008950F931F93DF93CF9300D0CDB728
:107CE000DEB7E5ECF1E08091F100819381E0ED3CBD
:107CF000F807C9F708DD8091E80083FFE4C08091B0
:107D0000C5019091C601953009F46DC0963040F4DC
:107D1000913081F1913070F0933009F0D4C02AC0D5
:107D2000983009F4A3C0993009F4B2C0963009F034
:107D3000CAC07CC0803809F4C6C0823809F0C3C00C
:107D40008091C90187708093E9008091EB001092C7
:107D5000E9002091E800277F2093E80090E025E0EB
:107D6000969587952A95E1F781708093F10010929E
:107D7000F10087C0882319F0823009F0A4C08F7108
:107D8000823009F0A0C08091C701882331F520918D
:107D9000C901277009F497C02093E9008091EB0096
:107DA00080FF1BC0933021F48091EB00806213C0F0
:107DB0008091EB0080618093EB0081E090E002C055
:107DC000880F991F2A95E2F78093EA001092EA0043
:107DD0008091EB0088608093EB001092E900809125
:107DE000E800877F51C0882309F06DC01091C7015A
:107DF0001F770FB7F8948091E800877F8093E800A1
:107E00009ADD8091E80080FFFCCF8091E3008078CC
:107E1000812B8093E30080688093E300112311F4A9
:107E200082E001C083E08EBB0FBF4DC0805882301E
:107E300008F049C08091C7019091C8016091C901C3
:107E4000AE014F5F5F4F36DDBC01009709F43BC0C8
:107E50008091E800877F8093E80089819A8192DE93
:107E60008091E8008B778093E8002DC0803859F529
:107E70008091E800877F8093E8008091C301809320
:107E8000F1008091E8008E778093E80054DD1BC0FC
:107E90008823C9F49091C7019230A8F48091E8003A
:107EA000877F8093E8009093C30145DD8091C301F3
:107EB000882331F48091E30087FD02C081E001C096
:107EC00084E08EBB50DC8091E80083FF0AC0809183
:107ED000EB0080628093EB008091E800877F8093C5
:107EE000E8000F900F90CF91DF911F910F910895AF
:107EF00008951F938EB3882361F01091E9001092CA
:107F0000E9008091E80083FF01C0E4DE1770109360
:107F1000E9001F910895F999FECF92BD81BDF89AAD
:107F2000992780B50895262FF999FECF1FBA92BDE3
:107F300081BD20BD0FB6F894FA9AF99A0FBE01964A
:067F40000895F894FFCF44
:107F46004341544552494E41007700080000000065
:107F56000000080112011001020000084F1B0592E3
:107F660001000201000109023E00020100803209FF
:107F7600040000010202010005240010010424028D
:107F8600040524060001070582030800FF09040111
:107F960000020A000000070504021000010705831D
:107FA60002100001040309041E03500072006F0052
:107FB60020004D006900630072006F00200035004C
:107FC60056002000200000002A03530070006100C4
:107FD60072006B00460075006E00200045006C00C4
:107FE60065006300740072006F006E006900630034
:047FF6007300000014
:040000030000700089
:00000001FF